:020000040800F2
:1000000048260020A9020008173F0008733A00089C
:10001000153F00086D100008116100080000000085
:100020000000000000000000000000005D4100082A
:10003000891300080000000093400008694100088F
:10004000C3020008C3020008C3020008C30200087C
:10005000C3020008C3020008C3020008C30200086C
:100060008B130008C302000891130008C3020008A4
:10007000C3020008C3020008C3020008C30200084C
:10008000C3020008C3020008390F0008C3020008B9
:10009000C3020008C3020008C3020008C30200082C
:1000A0001142000835420008294200081D4200089C
:1000B000414200084D420008C3020008C302000884
:1000C000C3020008C3020008C3020008C3020008FC
:1000D000C3020008C3020008C3020008C3020008EC
:1000E000C3020008C3020008C3020008C3020008DC
:1000F000C3020008C3020008C3020008C3020008CC
:10010000C3020008C3020008C3020008C3020008BB
:10011000C3020008C3020008C3020008C3020008AB
:10012000C3020008C302000801130008C30200084C
:10013000C3020008C3020008C3020008C30200088B
:10014000C3020008C3020008C3020008C30200087B
:10015000C3020008C3020008C3020008C30200086B
:10016000C3020008C3020008C3020008C30200085B
:10017000C3020008193F0008C30200080000000085
:10018000C3020008C3020008C3020008C30200083B
:10019000C3020008C3020008C3020008C30200082B
:1001A000C3020008C3020008C302000800F002F8FE
:1001B00000F06AF80AA090E8000C82448344AAF197
:1001C0000107DA4501D100F05FF8AFF2090EBAE895
:1001D0000F0013F0010F18BFFB1A43F0010318477B
:1001E00040600000606000000A444FF0000C10F80E
:1001F000013B13F0070408BF10F8014B1D1108BFA5
:1002000010F8015B641E05D010F8016B641E01F844
:10021000016BF9D113F0080F1EBF10F8014BAD1C94
:100220000C1B09D16D1E58BF01F801CBFAD505E0B2
:1002300014F8016B01F8016B6D1EF9D59142D6D30C
:10024000704700000023002400250026103A28BF34
:1002500078C1FBD8520728BF30C148BF0B60704738
:10026000642900F00781002070471FB505F0AAFF40
:1002700000F056FE04000020002105F08DFF401C18
:1002800060601FBD10B510BD00F00EFE1146FFF7F7
:10029000ECFF05F04FFF00F035FE03B4FFF7F2FF6F
:1002A00003BC00F041FE00000948804709480047B0
:1002B000FEE7FEE7FEE7FEE7FEE7FEE7FEE7FEE716
:1002C000FEE7FEE704480549054A064B7047000073
:1002D00001420008AD010008482000204826002007
:1002E000482200204822002053EA020C00F06980D6
:1002F0002DE9F04B4FF00006002B1FBFB3FA83F53A
:1003000003FA05F424FA05F65E4012BF1643B2FA6A
:1003100082F502FA05F4C5F120051EBF22FA05FC9C
:1003200044EA0C04203556EA044C4FEA144418BF42
:10033000641C4FF000084FF00009904271EB030C71
:1003400039D3002919BFB1FA81F701FA07F6B0FADB
:1003500080F700FA07F6C7F120071EBF20FA07FC56
:1003600046EA0C062037B6FBF4FCA7EB0507103F66
:1003700007F01F0BCBF120060CFA0BFB2CFA06F64C
:1003800044BFB3460026202FA4BF5E464FF0000BAB
:100390005BEA060C08BF4FF0010B19EB0B09ABFB36
:1003A000027C48EB0608C01B06FB02CC0BFB03CC0F
:1003B00071EB0C01C1E70B46024641464846BDE8D9
:1003C000F08B13B54FF000004FF00001AFF3008049
:1003D000BDE81C40704700000FB41CB50C0007AA14
:1003E000009001D02044401E074B7B446946019099
:1003F000069800F0FEFA002C03D06946002000F0B9
:100400000BFB1CBC5DF814FB350600002DE9F04128
:100410000E460446002020622046E168884730B33B
:10042000252805D0D4E901219047206A401CF2E735
:10043000E168204600278847050018D0A5F1410053
:10044000192802D820354FF4006732462946204645
:100450002760FFF705FF40B1012804D0F61D26F004
:1004600007060836D8E7361DD6E72846DAE7206AB9
:10047000BDE8F0812DE9F041064600241068752999
:10048000314616A510D0AFF30080002802DA4042B2
:1004900013A507E031688A0701D512A502E04907D4
:1004A00004D511A5012401E0AFF3008000210A2248
:1004B00006F1240709E0B0FBF2FCB0FBF2F302FB0B
:1004C0001C00303078541846491C0028F3D12346CC
:1004D0002A463046BDE8F04100F02DBA0000000089
:1004E0002D0000002B000000200000000FB400B51C
:1004F0008DB010A9099000910B904FF0FF300A9039
:1005000000200C90064878440690064878446A46D5
:1005100007900F9909A800F0A1FA0DB05DF814FB3F
:10052000730500008B0500002DE9FF5F1D464FF0AD
:10053000FF3B91464FF000085F46D5E90146A969A7
:1005400001987F1C8847296A824688470028F6D18F
:10055000BAF1FF3F0CD0002E24F4C06419DD600610
:1005600014D5BAF12B0F09D0BAF12D0F0ED103E03B
:10057000584604B0BDE8F09F44F48064A96901982E
:100580007F1C8847761E8246002E02DDBAF1300FAE
:1005900003D0B9F1000F26D032E0A969761E019888
:1005A0007F1C44F400748847002E824605DDBAF1B2
:1005B000780F06D0BAF1580F03D0B9F1000F10D060
:1005C0001EE0B9F1000F02D0B9F1100F18D1A969DE
:1005D000761E01987F1C24F4007488478246102000
:1005E00002E0082000E00A20814609E0A96908FB32
:1005F0000908761E01987F1C44F4007488478246DF
:10060000002E05DD4946504600F013FA0028EDDAC9
:10061000E96901988847A00502D46FF00100A8E7B6
:10062000E00725D1600613D5600502D5C8F10000AA
:1006300000E0404629680A1D2A600968220501D5A4
:10064000087015E0220701D5088011E008600FE06E
:100650002868011D29600068210502D580F8008006
:1006600006E0210702D5A0F8008001E0C0F8008074
:1006700038467EE72DE9FF5F4FF0000899461446A3
:1006800046469169D2E901A7DDF838B0019888475C
:10069000054659EA0B0005D009E0A1690198761CCE
:1006A00088470546216A284688470028F5D1681CF6
:1006B00003D05FEACA7005D015E04FF0FF3004B0F8
:1006C000BDE8F09F2068011D2160D0F800800AE09D
:1006D0005FEACA7001D108F8015BA169761C019834
:1006E0007F1E88470546002F1ADD681C18D0B9F117
:1006F000000F0DD0E81705EBD060421120F01F006D
:1007000059F822102A1A012090400142E0D107E056
:10071000BBF1000FDCD12846216A88470028D7D0DA
:10072000E16901988847BBF1000F07D1002E05DD74
:100730005FEACA7002D1002188F80010A068B842B0
:1007400003DDBBF1000F03D017B16FF00100B6E776
:100750003046B4E710B5431C02E010F8011B71B13C
:100760008107FAD14FF0013202C88C1A8C4314EA87
:10077000C211F9D0C01A0A0603D0C01E10BDC01A9B
:1007800010BD0A0401D0801E10BD0902FCD0401E1D
:1007900010BD032A40F2308010F0030C00F01580E9
:1007A00011F8013BBCF1020F624498BF11F801CB74
:1007B00000F8013B38BF11F8013BA2F1040298BFD9
:1007C00000F801CB38BF00F8013B11F0030300F043
:1007D0007581083AC0F0088051F8043B083A51F896
:1007E00004CBA0E80810F5E7121D5CBF51F8043BEC
:1007F00040F8043BAFF30080D20724BF11F8013B5F
:1008000011F801CB48BF11F8012B24BF00F8013BC0
:1008100000F801CB48BF00F8012B70474FF00002F1
:100820000429C0F0128010F0030C00F01B80CCF102
:10083000040CBCF1020F18BF00F8012BA8BF20F870
:10084000022BA1EB0C0100F00DB85FEAC17C24BFC4
:1008500000F8012B00F8012B48BF00F8012B70476E
:100860004FF0000200B5134694469646203922BF49
:10087000A0E80C50A0E80C50B1F12001BFF4F7AF94
:10088000090728BFA0E80C5048BF0CC05DF804EB76
:10089000890028BF40F8042B08BF704748BF20F8E4
:1008A000022B11F0804F18BF00F8012B7047000099
:1008B0004FF0013C50F8042B51F8043B9A4221D1EF
:1008C000A2EB0C03934313EACC1317D150F8042B7B
:1008D00051F8043B9A4215D1A2EB0C03934313EA5F
:1008E000CC130BD150F8042B51F8043B9A4209D198
:1008F000A2EB0C03934313EACC13DBD04FF00000C0
:10090000704700BFD01A01BAB1FA81F101F01801A5
:1009100022FA01F0CB40C1F12001DBB2C0B2C01A13
:100920002CFA01F3D11A914311EAC311E6D17047B1
:100930007047704770472DE9F0470D46994692463B
:10094000044600F124080168880604D5E06921F016
:100950001001216000E00120A84201DD471B00E0FA
:100960000027A1697A1902EB0900081AA061207812
:10097000C00602D42046AFF30080002608E0D4E988
:1009800001211AF806009047206A401C761C20625C
:100990004E45F4DB2078C0060AD52046AFF3008030
:1009A00006E0D4E9012130209047206A401C2062F3
:1009B000381EA7F10107F4DC07E0D4E9012118F89B
:1009C00005009047206A401C2062281EA5F1010501
:1009D000F3DC2046AFF300802078000602D5022029
:1009E000BDE8F0870120FBE701694A1C0261087835
:1009F000704700B58FB0CDE901310021059105495F
:100A00007944CDE9031011466846FFF7FFFC0FB0AB
:100A100000BD0000E5FFFFFF0A6802F8010B0A6055
:100A20007047D1E900239A4202D2531C0B60107028
:100A300070473A2800D2303820F02002412A01D3F2
:100A4000A2F13700884201D34FF0FF307047000019
:100A5000026811441378016018467047D160054957
:100A600079445161044979441162002111611146B0
:100A700000F060B8EDFFFFFFB7000000426842B130
:100A8000016811F8013B23B1521EC0E9001218465B
:100A900070470121C160881E704742685AB1C3681F
:100AA000016843B983688B4205D0491E521CC0E9D6
:100AB0000012002070474FF0FF30704710B5203A09
:100AC000C0F00B80B1E81850203AA0E81850B1E807
:100AD0001850A0E81850BFF4F5AF5FEA027C24BFBD
:100AE000B1E81850A0E8185044BF18C918C0BDE8B4
:100AF00010405FEA827C24BF51F8043B40F8043B7D
:100B000008BF7047D20728BF31F8023B48BF11F831
:100B1000012B28BF20F8023B48BF00F8012B70478B
:100B200010B5044600F0E6F90068005D00F0010031
:100B300010BD00002DE9F34F4FF0000A0C46564659
:100B40008DB001200C9001F10C000B9062690B98A4
:100B500001219047051E2DD0252D2CD0216A8847D4
:100B6000C0B162690B9801219047216A884700282B
:100B7000F7D16269411E0B98904700E0761CA1698D
:100B80000D988847216A88470028F7D1E1690D98B8
:100B90008847DBE7A1690D988847A842074601D13D
:100BA000761CD3E7E1690D9888477F1C02D1BAF122
:100BB000000F6FD06CE162690B9800273D46394603
:100BC00090472A2804D162690B980121904701259A
:100BD000DFF8D08262690B9801219047A0F13001C3
:100BE0000A290AD24745E5DC07EB870100EB4107FC
:100BF000303FDFD445F01005ECE7E90601D46FF093
:100C000000476C280AD04C2814D0682815D06A28D0
:100C10000DD074281CD07A281AD01DE062690B9878
:100C2000012190476C2802D045F0040514E045F0FE
:100C300002050DE045F020050AE062690B980121EC
:100C40009047682802D045F0080505E045F40065A6
:100C500062690B9801219047C4E9015765283DD08E
:100C600019DC58287AD00CDC452837D004DC25283C
:100C700026D041289ED131E046282FD0472899D14F
:100C80002CE05B2877D0612828D063287CD06428AA
:100C900023D15AE0F7E06F2848D008DC66281DD041
:100CA00067281BD0692821D06E2816D127E070282C
:100CB00045D0732868D0752847D078280DD14DE0ED
:100CC000A1690D988847252805463FF469AFE16979
:100CD0000D9888476D1C3FF46AAFD9E00D99234603
:100CE0006A466FF00100AFF30080C6E045F04000B7
:100CF00023464FF000026060A80736D43EE0E807C4
:100D00007FF447AF2068011D21600068290501D5E7
:100D100006701BE7290701D5068017E7A90703D549
:100D2000F117C0E9006111E706600FE745F04000E8
:100D300023464FF008026060A80716D41EE040F674
:100D40000E0125EA0100606016E045F040002346F0
:100D50004FF00A026060A80707D40FE045F040009A
:100D60006060A80708D5234610220D996FF0010096
:100D7000AFF3008081E007E0102223460D996FF069
:100D80000100FFF7D1FB78E04FF0000963284F46E0
:100D9000C8464B46CB4602D05B2807D039E02079C5
:100DA000C00601D40120A060012732E06269D4F8B6
:100DB0000CB00B98012190475E2807D14FF0010934
:100DC00049466269D4F80CB00B989047216939B94B
:100DD00000210A4603AB43F82120491C0829FADB0D
:100DE000D8B3216949B308F1010862690B98012160
:100DF00090475D28F4D1B9F1000F09D0002003A974
:100E000051F82020D24341F82020401C0828F7DB6D
:100E100003AB2069002820794FEA40701ED05B4662
:100E20002246CDF80080CDE901970D9900286FF09A
:100E3000010020DAAFF300801FE0C11703AA00EB26
:100E4000D1614B1121F01F0102EB8302411A13689B
:100E50000120884003431360C7E719E00D9922463B
:100E600000286FF00100009702DAAFF3008004E081
:100E7000FFF700FC01E0AFF3008000280ADA401C15
:100E800006D10C9820B14FF0FF300FB0BDE8F08FC5
:100E90005046FAE7E90701D10AF1010A06440020A9
:100EA0000C9053E6CCCCCC0C754600F035F8AE4631
:100EB00005006946534620F00700854618B020B566
:100EC000FFF700FABDE820404FF000064FF00007A2
:100ED0004FF000084FF0000B21F00701AC46ACE8E2
:100EE000C009ACE8C009ACE8C009ACE8C0098D464F
:100EF0007047000010B500F013F8001D10BD00BFD2
:100F00009952000010B50446AFF300802046BDE8BA
:100F10001040FFF7C2B9000000487047E81F0020EA
:100F2000004870470820002001491820ABBEFEE7AA
:100F30002600020070470000014800F0E3BA0000FC
:100F4000E8010020464910B54A6822F440324A6060
:100F50004A6843681A434A6001684A6822F480720A
:100F60004A6001684A68036942EA03224A600168EC
:100F70004A6822F040724A6001684A6883681A43EE
:100F80004A6001688A6822F400628A6001688A689F
:100F9000C3681A438A60816A6FF07062D142016847
:100FA0008A6822F070628A6001688A680CD0836A5D
:100FB0001A438A6001688A6822F040528A60016898
:100FC0008A68C36A1A4301E022F040528A600168CD
:100FD0008A6822F002028A6001688A68037E42EA17
:100FE00043028A6090F82010002901684A680FD0F7
:100FF00042F400624A6001684A6822F460424A6032
:1010000001684A68174C436A04EB43331A4301E012
:1010100022F400624A600168CA6A22F47002CA625D
:101020000168CA6A838B104C04EB03531A43CA62EB
:1010300001688A6822F400728A6001688A6890F800
:10104000303042EA43228A6001688A6822F4806272
:101050008A6001688A68406942EA8020886010BD21
:101060000023014000E0FFFF0000F0FFFEE700204A
:10107000704700207047000010B500220449054861
:1010800003F096FC0449034803F085FC002010BDE2
:10109000E410002008040020E408002070B50D468C
:1010A000044632210948FFF7B9FB2146084803F0FE
:1010B00072FC074803F048FC2A7821460348FFF7F2
:1010C00068FB044901200860002070BD6801002011
:1010D000080400201800002000207047094A10B5BD
:1010E000D2F8BC22D2F814220AB1012010BD0A465F
:1010F0000146044803F05CFCBDE81040014803F0E1
:10110000D1BC0000080400207FB55E4C00253221D0
:101110005D48A561FFF782FB5B4900205A4E3239DA
:101120000A5C3254232A02D0401C3228F8DB57A133
:101130005548FFF7BDFB002824D056A15248FFF7C1
:10114000B7FBF0B155A15048FFF7B2FBE8B156A18B
:101150004D48FFF7ADFBD8B156A14B48FFF7A8FBB0
:10116000C8B157A14848FFF7A3FB88B157A146482B
:10117000FFF79EFBA0B157A14348FFF799FBA0B131
:1011800016E0012002F0B0FF12E00121084604E061
:1011900002F0D2FF07E00121002002F0ADFF02E0E3
:1011A000012002F077FFE56102E0002002F072FF0B
:1011B000707831285AD1B078312857D0F07801268C
:1011C000312824D0322852D033284FD1A06AFFF7DB
:1011D000C1FA81B2A06AFFF781FF26662670658298
:1011E000E5816570A582E38927483CA21921323048
:1011F000FFF7F2F824483230FFF7ACFA81B2224808
:101200003230FFF76BFFBDE87F4002F033BC1D4B6F
:101210004033A3F1080202F1140101F108008DE846
:101220000F00393B323A30A11748FFF75FF9A06B46
:101230006063206CE0636064E06CA064606D2566B0
:101240002065206AFFF786FA81B2206AFFF746FF21
:10125000E661012002F048FF0121002002F04CFF6E
:10126000264801F05BFF207A401C20727FBD606A37
:10127000FFF770FA81B2606AFFF730FFBDE87F4088
:1012800002F05ABF000000209A0100202A323A35AD
:101290003A3223002A323A353A3123002A323A349C
:1012A0003A313A32230000002A323A343A323A32A2
:1012B000230000002A323A343A313A312300000048
:1012C0002A323A343A323A31230000002A323A378D
:1012D0003A3123002A323A373A3223002A4449531A
:1012E0003A256423000000002A25633A25633A2545
:1012F000643A25643A25643A25642300D00200202C
:10130000014800F017BA00006003002001681823AC
:10131000CAB2103AB2FBF3F2054B6FF30901032A8C
:101320009B5CC36500D9091D8165084670470000B4
:10133000CE61000810B5014600208B698A6A4FF023
:10134000C07453B1B3F5005F15D072B1012A0CD04F
:10135000022A0AD0032A09D104E01AB1012A06D0D0
:10136000022A03D1C96AC90100D5012010BDC96A8A
:10137000A142FAD010BD002AF7D0012AF2D0022AE9
:10138000F3D0032AF3D010BD7047042000F05CBBFB
:10139000102000F059BB72B6FEE7704778B5002404
:1013A000009490F83C20012A19D0012280F83C20BA
:1013B0000A6807230568092A13D9EE680A3A02EB7E
:1013C000420293409E43EE600B788A680A3B03EB2F
:1013D00043039A400368DD682A43DA6010E0022084
:1013E00078BD2E6902EB420293409E432E610B783A
:1013F0008A6803EB43039A4003681D692A431A6114
:101400004A681F23072A13D205686E6B521E02EB2F
:10141000820293409E436E630A8893B20A79521EF9
:1014200002EB820293400268556B2B43536327E023
:1014300005680D2A12D22E6BD21F02EB8202934056
:101440009E432E630B790A88DB1F92B203EB830362
:101450009A4003681D6B2A431A6311E0EE6A0D3A45
:1014600002EB820293409E43EE620B790A880D3BA9
:1014700092B203EB83039A400368DD6A2A43DA627F
:101480001B4B0568194A9D420AD10D68122D07D1E0
:10149000556825F400055560556845F4800555608C
:1014A00005689D421DD1134D0B68AB4201D0112B35
:1014B00017D1536823F480035360536843F4000347
:1014C00053600968A9420CD10B490C4A0968B1FB69
:1014D000F2F101EB8101490000E0491E0091002971
:1014E000FBD180F83C40002078BD00000023014083
:1014F0000020014012000010D400002040420F00E4
:101500007047704770B5044600680668456816F075
:10151000020F05F020012AD049B3216CC90603D47B
:10152000216C41F400712164816811F0405F17D192
:10153000217EA9B9C16A11F4700F02D081684905F2
:101540000ED4416821F020014160206C20F48070AD
:101550002064206CC00403D4206C40F0010020649F
:101560002046FFF7CDFF21686FF01200086016F0EB
:10157000040F05F0800132D089B3206CC00603D47B
:10158000206C40F4005020642068816811F4401FF2
:101590001ED1816B11F4401F02D08168490517D418
:1015A0004168490514D4816811F0405F10D1217E53
:1015B00071B9416821F080014160206C20F48050B5
:1015C0002064206CC00503D4206C40F0010020642E
:1015D0002046FFF7E2FE21686FF00C00086016F06D
:1015E000010F05F040010FD071B120680068C007FD
:1015F0000AD0206C40F480302064204600F043F88C
:1016000021686FF00100086016F0200F05F080617E
:101610000ED000290CD0606C40F00200606420689D
:101620006FF0200505602046FFF76BFF206805601E
:1016300070BD70B504004FF0000503D0206C00268B
:1016400010B107E0012070BD204600F01DF866646F
:1016500084F83C60206CC00610D4206C20F48850C4
:1016600040F0020020642046FFF76CFC6664206CAA
:1016700020F0020040F00100206400E0012584F821
:101680003C60284670BD704770B586B00646142190
:101690006846FFF7E5F82249306888423DD1214885
:1016A0000025016841F400710160006800F40070D9
:1016B00005901C481438016841F001010160006880
:1016C000694600F001000590442000900320CDE918
:1016D0000105154800F0C4F9154C144820604FF07E
:1016E0000070C4E90105C013C4E9035080006061C3
:1016F0008000C4E9060525622046656200F0EAF82C
:1017000008B1FFF748FEB463002205211220A6634A
:1017100000F068FB122000F057FB06B070BD00001F
:101720000021014044380240000002404064024071
:10173000600300202DE9F84304464FF00009CDF87E
:10174000009063484FF41651A56D0068B0FBF1F7A7
:101750002E6894F85C10082000FA01F131420FD095
:1017600021680A6852070BD50A6822F004020A6051
:1017700094F85C108840A860606D40F001006065DE
:1017800094F85C104FF0010808FA01F0304208D0DC
:1017900021684969090604D5A860606D40F002001F
:1017A000606594F85C1004208840304208D02168BD
:1017B0000968890704D5A860606D40F00400606581
:1017C00094F85C1010208840304218D021680968D5
:1017D000090714D5A86020680168490304D500688A
:1017E000000308D5A16C07E00168C90503D40168AE
:1017F00021F008010160216C09B12046884794F866
:101800005C1020208840304231D021680968C90628
:101810002DD5A86094F8350005282068016806D009
:10182000490347D5006800031DD4616C1CE021F01A
:10183000160101602068416921F080014161206C3E
:1018400008B9A06C20B12068016821F0080101608E
:1018500094F85C103F208840A86084F8358084F8B4
:101860003490216D1FE0E16B09B120468847606D1F
:1018700000282BD0606DC00714D0052084F83500F7
:101880002068016821F0010101600098401C00906F
:10189000B84203D820680068C007F6D184F83580C4
:1018A00084F83490E16C002910D001B02046BDE8E6
:1018B000F04308470168C905D5D4016821F010013B
:1018C000016084F8358084F83490CCE7BDE8F88373
:1018D000D40000202DE9F041044600F0E9F9064665
:1018E0005CB1022084F83500002584F8345020686B
:1018F000016821F0010101600DE00120BDE8F081E7
:1019000000F0D6F9801B052805D92020606503204A
:1019100084F83500F2E720680068C007F0D122683B
:10192000116820480140D4E901031843D4E9033683
:101930003343184363691843A3691843E3691843A1
:10194000236A18430843616A042903D1D4E90B13BD
:1019500019430843106020684069666A20F0070157
:1019600030460E43012704280CD1A06A0643E06AE2
:1019700040B12046FFF7DEFC20B14020606584F8CE
:101980003570BAE7206846612046FFF7BFFC94F83F
:101990005C203F2191408160656584F835700020AE
:1019A000ACE700003F8010F070B5044600F080F90D
:1019B0000546601C02D004480078044400F078F921
:1019C000401BA042FAD370BDC80000202DE9F041B1
:1019D000194C07464FF400516079401C607117485C
:1019E00000F058F916484FF48051042F07D0102FFB
:1019F00020D102222271BDE8F04100F04BB9002253
:101A00000D46064600F04EF9E069012809D0206E27
:101A100001280FD10020A082BDE8F041094801F063
:101A20007DBB01202071024629463046BDE8F041C9
:101A300000F038B9BDE8F081000000200018024035
:101A400000000240D0020020044910B50A6802429A
:101A500002D00860FFF7BAFF10BD0000143C01403F
:101A60002DE9F84FDFF8F8A10022012403254FF0FB
:101A70000F090AF1040BAAF1040E00BF0B6804FA67
:101A800002F63340B34270D10F7907F00307012FFC
:101A900001D0022F16D187684FEA420805FA08FCE8
:101AA00027EA0C07D1F80CC00CFA08FC4CEA070C2A
:101AB000C0F808C04768B7430E79C6F300169640D1
:101AC0003E4346600E79F643B6070AD0C7684FEA30
:101AD000420C05FA0CF6B7438E6806FA0CF63E4344
:101AE000C6600E7906F00306022E10D1D60800EB70
:101AF0008608D8F8206057074FEAD76C09FA0CF728
:101B0000BE430F6907FA0CF73743C8F82070066820
:101B10004FEA420C05FA0CF7BE430F7907F00307B2
:101B200007FA0CF7374307604E6816F4403F1CD0A5
:101B30004C4E376847F480473760366822F0030719
:101B400006F480460096484E07EB060CDCF8086861
:101B500097073F0F09FA07F826EA0806DFF80C8115
:101B6000404503D14FF0000841E072E0DFF800810A
:101B7000404502D14FF0010839E0DFF8F8804045D8
:101B800002D14FF0020832E0DFF8EC80404502D18C
:101B90004FF003082BE0DFF8E480404502D14FF01E
:101BA000040824E0DFF8D880404502D14FF0050852
:101BB0001DE0DFF8D080404502D14FF0060816E066
:101BC000DFF8C480404502D14FF007080FE0DFF88E
:101BD000BC80404502D14FF0080808E0DFF8B08033
:101BE000404502D14FF0090801E04FF00A0808FA19
:101BF00007F848EA0608CCF80888DAF80060574683
:101C0000D1F804C09E435FEACC2C00D51E433E6051
:101C1000DBF800605F46D1F804C09E435FEA8C2C7D
:101C200000D51E433E60DEF800607746D1F804C060
:101C30009E435FEA8C3C00D51E433E60084F083F40
:101C40003E68D1F804C09E435FEACC3C00D51E43F9
:101C50003E60521C102AFFF411AFBDE8F88F00005F
:101C6000083C01404438024000300140000002407E
:101C70000004024000080240000C02400010024034
:101C80000014024000180240001C024000200240E4
:101C900000240240426921EA02030A4043EA024169
:101CA000816170470AB1816170470904FBE7000058
:101CB0000148806870470000C80000200248816821
:101CC0000278114481607047C80000200B4810B5AD
:101CD000016841F400710160016841F480610160B4
:101CE000016841F480710160032000F09BF80F202F
:101CF00000F006F800F050F8002010BD003C024053
:101D000030B50546204887B00024016841F0010144
:101D10000160006806A900F00100009001A800F031
:101D200043FE0498B0B100F065FE400017494FF043
:101D30008042B0FBF1F11648491E026040F2E732E2
:101D4000C0E90324C0E90114846101F051F90400E1
:101D500003D015E000F04EFEE8E70D4801F0DEF993
:101D600004000DD11C2000F02FF8102D07D2002206
:101D700029461C2000F036F80648056000E00124E2
:101D800007B0204630BD00004038024040420F00FE
:101D9000C0030020CC0000200A4808B5016841F4C7
:101DA00080410160006800F4804000900548001FF9
:101DB000016841F080510160006800F0805000909F
:101DC00008BD000044380240002809DB00F01F0273
:101DD000012191404009800000F1E020C0F800118D
:101DE00070470000F0B40E4B1B680C46C3F302238F
:101DF000C3F10705042D00D90425191D072901D2B7
:101E0000002300E0DB1E012606FA05F1491E2140F1
:101E100099409E40761E16403143F0BC04F079B9DB
:101E20000CED00E0064900F0070208684FF6FF03DA
:101E3000184040EA0220034A10430860704700003F
:101E40000CED00E00000FA057047006841620020D8
:101E50007047F0B50368586A39B19C6A4FF48276CE
:101E600000EB144400204D1E0AE040EA0240986254
:101E70000FE006EB8007DF59401C04EB1744C0B2AB
:101E8000A842F6D344EA02404FF4807202EB81018B
:101E900058500020F0BDD0F8E00403F094B801EBF6
:101EA000C10200EB8202D0F8E004126A02F0E9BF3E
:101EB00001EBC10200EB8202D0F8E004D2F860220C
:101EC00003F03AB8D0F8E00403F07FB80A0601F056
:101ED0000F0101EBC10100EB810101D5143101E0DB
:101EE00001F51571006803F061BF70B504460B067B
:101EF00001F00F0000EBC00104EB81014FF0010283
:101F00004FF0000502D54A75143103E081F85552AF
:101F100001F51571087094F89404012808D084F82C
:101F20009424206803F05CFC84F89454002070BD75
:101F3000022070BD70B5044601F00F002279904276
:101F400001D9012070BD0B0601F00F0101EBC101A9
:101F500004EB81014FF001024FF0000502D54A75F4
:101F6000143103E081F8555201F515718D70087038
:101F700094F89404012808D084F89424206803F08D
:101F8000A1FD84F89454002070BD022070BD01F0C2
:101F90000F0101EBC10100EB8100D0F8680270472E
:101FA0002DE9F04104460F0601F00F0000EBC001DF
:101FB00004EB81014FF001064FF0000502D54E758C
:101FC000143103E081F8555201F51571C2F30A028C
:101FD00008708A600B714A7802B14883022B00D1E5
:101FE0004D7194F89404012809D084F89464206811
:101FF00003F048FB284684F89454BDE8F0810220A1
:10200000FBE710B501F00F0404EBC40100EB810104
:10201000C1E998230023C1F8683281F8553281F86C
:102020005442837901F51571012B00D1CA6182797F
:10203000006803F09FFD002010BD70B504460D46FA
:1020400001F00F002179884201D9012070BD2906D5
:102050004FF000064FF0010206D500EBC00104EB83
:1020600081014A75143107E005EBC50104EB8101DC
:1020700081F8556201F515718A70087094F894041E
:10208000012807D084F89424206803F047FD28072E
:1020900002D007E0022070BDA17904F29C422068C2
:1020A00003F0E4FC84F89464002070BD10B501F0E6
:1020B0000F0404EBC40100EB8101C1E908230023F4
:1020C0008B6201234B7501F8144F8379012B00D1EA
:1020D000CA618279006803F04DFD002010BD000048
:1020E0002DE9FC5F05680446284603F0FBFE002846
:1020F0007DD1206803F022FF002878D0D5F80808A9
:10210000C0F30D20C4F8D404206803F017FF800743
:1021100004D52068416901F002014161206803F0A3
:102120000DFFC10604F29C40009034D520688169FF
:1021300021F0100181612F6A07F00F0000EBC00051
:1021400004EB8006C7F3434006F51576022802D05B
:10215000062811D01AE047F6F070074216D0C7F3F0
:102160000A1217462846F16803F0ECFEF06838447E
:10217000F0607069384408E008222846009903F0AE
:10218000E1FE7069C7F30A11084470612068816933
:1021900041F010018161206803F0D0FE00034FF090
:1021A000080B4FF0000A4FF001097CD5002620688B
:1021B00003F0A3FE074674E0F80770D0F1B2206880
:1021C00003F0B4FE8046C00707D005EB4611C1F806
:1021D000089B3146204601F0A5FE5FEA087024D531
:1021E00005EB4611C1F808BB2068016C00E023E252
:1021F00000EB46100191D0F8082BFB4B994205D912
:10220000110403D54FF40041C0F8081B204600F02C
:10221000F0FAF5490198884207D9A079012804D13C
:1022200020680121009A03F021FC5FEAC86004D510
:1022300005EB46111020C1F8080B5FEA88701DD528
:102240006869000605D5D5F8040840F48061C5F832
:10225000041806EBC60004EB800090F8571200F556
:102260001570012905D180F803A0F1B2204600F0D5
:10227000E9F905EB46110220C1F8080B5FEA886016
:1022800004D505EB46102021C0F8081B5FEA884002
:1022900005D505EB46104FF40051C0F8081B7F0828
:1022A000761C002F88D1206803F048FE40036ED5CD
:1022B000206803F01BFE0746002666E0F80762D0A0
:1022C000F1B2206803F020FE8046C00723D006F05C
:1022D0000F01D5F8342809FA01F18A43C5F83428EA
:1022E00005EB4611C1F80899A07901280FD106EB3A
:1022F000C60004EB8000D0E907211144016236B921
:10230000606A20B920680121009A03F0AFFBF1B2A6
:102310002046FFF7C4FD5FEA087003D505EB4611C0
:10232000C1F808B95FEAC86004D505EB4611102072
:10233000C1F808095FEA486004D505EB4610402162
:10234000C0F808195FEA887016D53146284603F0B0
:102350009EFD06EBC60004EB8000C17D1430012910
:1023600005D180F803A0F1B2204600F067F905EB33
:1023700046110220C1F808095FEA086003D531461A
:10238000204601F035FE7F08761C002F96D120688C
:1023900003F0D4FD002811DAD5F8040820F001017B
:1023A000C5F8041894F8CC0401282BD0204600F07E
:1023B00005FA2068416901F000414161206803F09D
:1023C000BDFD00050BD5D5F80808C00702D0204692
:1023D00000F038FA2068416901F400614161206829
:1023E00003F0ACFDC00467D5D5F8040820F0010067
:1023F000C5F804081021206803F049FD00214FF6BC
:102400007F3220E084F8CCA400212046FFF71CFD99
:10241000CFE700BF05EB4110C0F80829D0F800391C
:1024200023F40013C0F80039C0F8082BD0F8003BA3
:1024300023F40013C0F8003BD0F8003B43F00063E6
:10244000C0F8003B491C20798842E3D8D5F81C0825
:1024500040F00111C5F81C18E07B002828460DD07B
:10246000D0F8840840F00B01C5F88418D5F844086A
:1024700040F00B012846C5F844180DE0D0F81408C8
:1024800042F22B010843C5F81408D5F8100840F0B3
:102490000B012846C5F81018D0F8000820F4FE619A
:1024A000C5F80018A1792068009A03F0DFFA2068C7
:1024B000416901F480514161206803F03FFD8004CF
:1024C00015D5206803F01EF9206803F0FEFCE071CA
:1024D00000F08AFA0146E279206803F091FD204677
:1024E00000F056F92068416901F40051416120680B
:1024F00003F024FD000707D5204600F063F92068AB
:10250000416901F008014161206803F017FD0006F0
:1025100016D5A86920F08001A96101260DE000BF51
:1025200006EBC60004EB800090F85702012803D1A7
:10253000F1B22046FFF7CAFC761C2079B042EFD8F2
:10254000206803F0FBFCC0021FD501264F4614E0B3
:1025500005EB4610D0F8001906EBC60004EB80022C
:10256000107E012808D1002906DAF0B240F080017F
:10257000D7752046FFF7AAFC761C2079B042E7D831
:102580002068416901F480114161206803F0D6FCA4
:10259000800234D501204A4629E000BF05EB4011F6
:1025A000D1F8001B00EBC00304EB830393F85862DF
:1025B000012E1BD1002919DA94F8D46401F480317A
:1025C00006F00106B14211D183F85722A96941F002
:1025D0008003AB616969090608D4D5F8040840F4A2
:1025E0000070C5F8040805E00A30544F401C2179FA
:1025F0008142D3D82068416901F40011416120680B
:1026000003F09CFC400007D52046FFF744FC2068FF
:10261000416901F080414161206803F08FFC40076F
:102620000AD520684568680702D52046FFF74AFCAE
:102630002068416829434160BDE8FC9FD0F8E00470
:1026400002F01BBDD0F8E00402F02BBDF8B5040089
:1026500005D094F895042668002510B106E0012005
:10266000F8BD84F89454204600F056F8032084F80E
:102670009504B6F1A04F00D1A571206803F0F0F9E0
:10268000207C8DF8000094E80F0003F049F8022642
:10269000B8BB0021206803F074FC90BB0020012728
:1026A0000DE000BF00EBC00104EB81014F75087520
:1026B000C8850D76CD610D62401CC0B24D62217996
:1026C0008142EFD8002011E000EBC00104EB810152
:1026D00081F8555281F8540281F85852C1F85C5281
:1026E000C1F86052401CC0B2C1F8645221798142E5
:1026F000EAD8207C8DF8000094E80F0003F0F2F88F
:1027000010B184F89564AAE7657484F8957420681C
:1027100003F0DAF80020F8BD10B586B004461421A5
:102720006846FEF79DF817492068884227D1164C65
:102730000020216841F002012160216801F00201BE
:1027400005914FF4404100910221CDE90110032091
:1027500003900C20049069460C48FFF781F920682B
:1027600040F0005020602068002200F000500590EA
:1027700005214D20FFF736FB4D20FFF725FB06B066
:1027800010BD000000000440303802400004024048
:1027900070B50446C079012570B1022801D0FEF75A
:1027A000FAFD2946D4F8E00402F0E9FCD4F8E0048C
:1027B000BDE8704002F09EBC0025F2E7D0F8E004CE
:1027C00002F0C6BCD0F8E00402F0CCBC10B5044660
:1027D00090F8940401280AD0012084F894046174CC
:1027E000206803F0FCFB002084F8940410BD022054
:1027F00010BDD0F8E02400F29C41104602F0CBBCA2
:1028000010B50446006894F89414012909D00121F8
:1028100084F89414C168490609D5617B012902D066
:1028200005E0022010BD816B41F480318163206896
:1028300003F00BFB206803F039F8002084F89404BF
:1028400010BD000010B50446D0F8E00402F0E5FC2D
:102850002068D0F8001E41F00101C0F8001EE07AA7
:10286000002804D00248016841F00601016010BD53
:1028700010ED00E02DE9F0470E46050065D0DFF8C9
:102880001481D8F80000F7B200F00F00B04207D270
:1028900088F80070D8F8000000F00F00B04254D162
:1028A00028683D4C810712D5400703D5206840F4C5
:1028B000E05020602878000703D5206840F460408D
:1028C00020602068A96820F0F00008432060287884
:1028D000C0072DD0304968680839012812D0022875
:1028E00013D0032811D00968890700292DDA21683F
:1028F00021F0030101432160FFF7DAF9814641F23B
:10290000883A0EE009688903EFE709688901ECE776
:10291000FFF7CEF9A0EB0901514502D90320BDE82C
:10292000F0872068696800F00C00B0EB810FEFD1F0
:10293000D8F80010404601F00F01B14207D90770E6
:10294000006800F00F00B04201D00120E7E72878CE
:10295000400705D52068E96820F4E050084320606E
:102960002878000706D52068296920F4604040EAED
:10297000C100206000F04EF82168084AC1F303113D
:10298000515CC8400649086006480068FFF7B8F97E
:102990000020C4E7003C024008380240D66100082D
:1029A000D4000020CC0000200F2202600C4A1368E3
:1029B00003F003034360136803F0F00383601368BC
:1029C00003F4E053C36012684FF4E05303EAD20209
:1029D00002610448006800F00F00086070470000C2
:1029E00008380240003C024001480068704700007F
:1029F000D40000200448054900680968044AC1F36E
:102A00008221515CC8407047D40000200838024041
:102A1000E6610008154810B5006810F00C02144873
:102A200013D04110042A0FD0082A0ED10F4C241FB6
:102A30002268236802F03F025B0207D52068C0F3DA
:102A40008810A0FB010106E0084610BD2168C1F313
:102A50008811A1FB00010023FDF746FC2168C1F3AA
:102A60000141491C4900B0FBF1F010BD083802409B
:102A70000024F4002DE9F84F04006ED02078DFF830
:102A80004C93C007A9F104054AD009F1040001687C
:102A9000C1F38101012908D00068C0F38100022838
:102AA0000AD1D9F80000400206D52868800337D53E
:102AB00060680028E1D033E06068B0F5803F10D056
:102AC000B0F5A02F286810D020F480302860286846
:102AD00020F4802028606068A8B1FFF7E9F8064676
:102AE0000DE0286840F48030F4E740F4802028604E
:102AF000F7E700BFFFF7DCF8801B642873D828686D
:102B00008003F7D50CE0FFF7D3F8064605E000BFD9
:102B1000FFF7CEF8801B6428F0D828688003F7D42C
:102B20002078DFF8AC8280074FF0000A3ED5A74836
:102B3000001D016811F00C0F08D00068C0F381007F
:102B400002280BD1D9F80000400207D4286880077A
:102B500016D5E068012800D112E033E1E068B8B191
:102B60000120C8F80000FFF7A3F8064605E000BF03
:102B7000FFF79EF8801B0228C0D828688007F7D589
:102B80002868216920F0F80040EAC10028600DE0C3
:102B9000C8F800A0FFF78CF8064604E0FFF788F8B5
:102BA000801B02281FD828688007F7D420780007E8
:102BB00022D5864F87486169703771B10121016064
:102BC000FFF776F8064604E0FFF772F8801B02284C
:102BD00009D838688007F7D50EE0C0F800A0FFF7E5
:102BE00067F8064605E082E0FFF762F8801B0228DE
:102BF0007DD838688007F7D42078400768D5DFF89B
:102C0000CCB100270BF13C0BDBF80000C0000BD46B
:102C1000DBF8001041F08051CBF80010DBF8000029
:102C2000012700F0805000906B4E3068C00510D432
:102C3000306840F480703060FFF73AF8009005E0AB
:102C4000FFF736F80099401A022850D83068C005BE
:102C5000F6D55E4EA0686C3601280FD00528306886
:102C600010D020F001003060306820F004003060A7
:102C7000A068B8B1FFF71CF800900FE0306840F092
:102C80000100F4E740F004003060F7E7FFF710F8C8
:102C90000099411A41F28830814266D83068800735
:102CA000F4D50EE0FFF704F8009007E0FFF700F816
:102CB0000099411A41F28830814256D83068800725
:102CC000F4D42FB1DBF8001021F08051CBF80010C4
:102CD000A069C8B33D49091D0968C1F381010229F2
:102CE0004AD00228504607D0C8F8600000E03CE017
:102CF000FEF7DEFF04463BE04746C8F86000FEF7FB
:102D0000D7FF064605E000BFFEF7D2FF801B022872
:102D10002BD828688001F7D4D4E907010843A16AB9
:102D20002E4A490802EB0141626A41EA82110843D6
:102D300094F82C1040EA0161C9F8001001203866AF
:102D4000FEF7B6FF044606E03EE000BFFEF7B0FF28
:102D5000001B022809D828688001F7D534E000BF9D
:102D6000FEF7A6FF001B022802D90320BDE8F88F5A
:102D700028688001F4D427E00128F7D0D9F80000B2
:102D8000E26900F4800191421CD1226A00F03F0107
:102D9000914217D147F6C071626A0140B1EB821FC0
:102DA00010D1A26A4FF0FF3300F4403103EB52021E
:102DB000B1EB024F06D194F82C1000F07060B0EB2C
:102DC000016F01D00120D1E70020CFE70438024095
:102DD00000004742800E4742007000400000FFFFA5
:102DE00070B5040009D0606A002540B125616561B5
:102DF000A56294F8510040B10CE0012070BD6068FC
:102E0000B0F5827FF4D0E561F2E784F850502046B7
:102E100000F044F8022084F851002068016821F095
:102E200040010160A088218900F4827001F404410E
:102E30000843A18901F400610843217C01F00201EB
:102E40000843217D01F001010843218B01F4007149
:102E50000843217F01F03801084394F8201001F065
:102E600080010843218D01F4005108432168086066
:102E7000A069042101EA104094F8241001F0100127
:102E80000843216848602068C16921F40061C1617C
:102E90006565012084F85100002070BD10B586B032
:102EA000044614216846FDF7DBFC1449206888427B
:102EB00021D113480021026842F4004202600068F8
:102EC00000F4004005900E481038026842F00402F9
:102ED0000260006800F0040005904FF4E05000909C
:102EE0000220CDE9010103200390062004906946E9
:102EF0000448FEF7B5FD06B010BD0000003C0040E0
:102F000040380240000802407047704710B590F802
:102F10003C20012A22D0012280F83C20CA688C681B
:102F200022F4407222434C6822F4806222430C68EF
:102F300022F4006222430C6922F4805222434C693D
:102F400022F400522243C969002322F480420A433A
:102F500001684A6480F83C30002010BD022010BD9A
:102F600070B590F83C20012A32D0012480F83C4012
:102F7000022280F83D2003685A689D6822F070069E
:102F80000A6832435A60134B02689A4214D0B2F175
:102F9000804F11D0104B9A420ED0104B9A420BD05A
:102FA0000F4B9A4208D00F4B9A4205D00E4B9A42D3
:102FB00002D00E4B9A4204D1496825F08003194390
:102FC000916080F83D40002180F83C10084670BDBB
:102FD000022070BD000001400004004000080040D5
:102FE000000C004000040140004001400018004077
:102FF00010B5040003D094F83D0010B107E00120A3
:1030000010BD002084F83C00204600F01FF802208C
:1030100084F83D00211D206801F01EF9012084F88C
:10302000460084F83E0084F83F0084F8400084F8AD
:10303000410084F8420084F8430084F8440084F896
:10304000450084F83D00002010BD000010B586B09A
:10305000044614216846FDF703FC2C4A2168002031
:10306000914227D12A48016841F0010101600068BE
:10307000002200F00100059011461820FEF7B2FE74
:103080001820FEF7A1FE002211461920FEF7AAFE25
:103090001920FEF799FE002211461A20FEF7A2FE23
:1030A0001A20FEF791FE002211461B20FEF79AFE21
:1030B0001B2027E0174A914226D11549091F0A68AB
:1030C00042F002020A60096801F00201059110490C
:1030D00014390A6842F004020A60096801F0040128
:1030E0000591402100910221CDE90110CDE90301B4
:1030F00069460948FEF7B4FC002211461D20FEF780
:1031000071FE1D20FEF760FE06B010BD00000140FC
:1031100044380240000400400008024090F83D108E
:10312000012901D001207047022180F83D1001687B
:10313000CA6842F00102CA6000681149884214D08E
:10314000B0F1804F11D00F4988420ED00E4988420D
:103150000BD00E49884208D00D49884205D00D4950
:10316000884202D00C49884204D1816801F00701ED
:10317000062903D0016841F0010101600020704779
:10318000000001400004004000080040000C004026
:103190000004014000400140001800400168CA6876
:1031A00022F00102CA6001680A6A41F211131A4250
:1031B00007D10A6A9B101A4203D10A6822F0010261
:1031C0000A60012180F83D100020704770B5044668
:1031D00090F83C000025012817D0012684F83C60B7
:1031E000022084F83D002068826822F0770222F4F1
:1031F0007F4282600868502838D00DDC20284FD0EC
:1032000005DC90B3102811D14AE0022070BD3028AF
:1032100046D040280AD13BE060282FD070280DD03E
:10322000B0F5805F03D0B0F5005F12D0012584F8BF
:103230003D60002084F83C00284670BDCB68D1E991
:103240000121206801F081F82068816841F0770150
:1032500009E0CB68D1E90121206801F076F8206807
:10326000816841F480418160E1E719E0CA684968FA
:10327000206801F03FF95021206806E0CA684968DB
:10328000206801F089F96021206801F068F8CEE734
:10329000CA684968206801F02DF940212068F4E7E8
:1032A000226801461046F0E770472DE9F0410546D7
:1032B00090F83C0000260C46012810D0012085F82B
:1032C0003C0072B1042A1CD0082A2CD00C2A50D001
:1032D0000126002085F83C003046BDE8F081022040
:1032E000FBE7D4E90012E368286801F015F92868C3
:1032F000816921F00C01816128688169A26811430C
:103300000FE0D4E90012E368286801F057F9286853
:10331000816921F44061816128688169A26841EA7C
:1033200002218161D5E72868D4E9002C277B036A54
:10333000016A21F480710162C16923F4206321F0E4
:10334000030141EA0C0121F0F00C39074FF420672A
:103350004CEA116107EA02221A43C161026228683D
:10336000C16921F00C01C1612868C169A2681143DB
:103370002BE02868D4E90021E768036AD0F820C070
:103380002CF4805CC0F820C0D0F81CC023F420438B
:103390002CF4407C4CEA012121F4704C4FF6FF7173
:1033A00001EA07314FF4204741EA0C0107EA0232F3
:1033B0001A43C16102622868C16921F44061C16198
:1033C0002868C169A26841EA0221C16181E710B59C
:1033D000040003D094F83D0010B107E0012010BDB7
:1033E000002084F83C00204600F01EF8022084F8FB
:1033F0003D00211D206800F02FFF012084F84600C9
:1034000084F83E0084F83F0084F8400084F84100CE
:1034100084F8420084F8430084F8440084F84500AE
:1034200084F83D00002010BD70472DE9F0410446AE
:103430000068C66805694FF00007A90713D5B107F2
:1034400011D5F91E0161012020772068806980076D
:10345000204602D0FFF728FF04E000F0A9F820463C
:1034600000F03BF92777680716D5700714D5216857
:103470006FF004000861022020772068806910F452
:10348000407F204602D0FFF70FFF04E000F090F8E5
:10349000204600F022F92777280715D5300713D5E5
:1034A00021686FF008000861042020772068C06957
:1034B0008007204602D0FFF7F7FE04E000F078F81E
:1034C000204600F00AF92777E80616D5F00614D54D
:1034D00021686FF010000861082020772068C0691B
:1034E00010F4407F204602D0FFF7DEFE04E000F03B
:1034F0005FF8204600F0F1F82777E80708D0F007DA
:1035000006D021686FF001000861204600F088F9BC
:10351000280608D5300606D521686FF080000861BE
:103520002046FFF7F1FC680608D5700606D521682D
:103530006FF040000861204600F09AFAA8060AD50C
:10354000B00608D521686FF0200008612046BDE86C
:10355000F041FFF7DABCBDE8F081000010B586B09D
:10356000044614216846FDF77BF90E49206888421D
:1035700016D10D480021026842F001020260006885
:1035800000F0010005904FF4807000900220CDE91A
:1035900001010120CDE9031069460448FEF760FAF5
:1035A00006B010BD0000014030380240000002406B
:1035B000704770B5044690F83C0000260D4601287F
:1035C0000FD0012084F83C006AB1042A1DD0082ADB
:1035D0002FD00C2A3FD00126002084F83C00304632
:1035E00070BD022070BD206800F0C2FE20688169B5
:1035F00041F0080181612068816921F00401816145
:10360000206881692A69114311E0206800F0E0FE1A
:103610002068816941F4006181612068816921F439
:1036200080618161206881692A6941EA02218161A2
:10363000D2E7206800F002FF2068C16941F008016C
:10364000C1612068C16921F00401C1612068C169BC
:103650002A69114311E0206800F024FF2068C16945
:1036600041F40061C1612068C16921F48061C161D8
:103670002068C1692A6941EA0221C161ACE710B53D
:10368000040003D094F83D0010B107E0012010BD04
:10369000002084F83C00204600F01EF8022084F848
:1036A0003D00211D206800F0D7FD012084F8460070
:1036B00084F83E0084F83F0084F8400084F841001C
:1036C00084F8420084F8430084F8440084F84500FC
:1036D00084F83D00002010BD7047704710B50446C7
:1036E000022249B104290ED0082913D094F84100D0
:1036F000012816D0012010BD94F83E000128F9D110
:1037000084F83E200FE094F83F000128F2D184F8BD
:103710003F2008E094F840000128EBD184F84020D5
:1037200001E084F841200122206800F001FE1649E2
:103730002068164A884201D0904203D1436C43F47A
:10374000004343642068884213D0B0F1804F10D00A
:103750000F4988420DD00F4988420AD00E4988424D
:1037600007D0904205D00D49884202D00C498842CA
:1037700004D1816801F00701062903D0016841F0F6
:1037800001010160002010BD000001400004014063
:103790000004004000080040000C004000400140D0
:1037A0000018004030B504460D460068002200F0C5
:1037B000BFFD194B41F2111120688A10984202D0C6
:1037C000164B984209D1036A0B4206D1036A134291
:1037D00003D1436C23F4004343642068036A0B4223
:1037E00006D1016A114203D1016821F00101016093
:1037F00001203DB1042D08D0082D09D084F84100E6
:10380000002030BD84F83E00FAE784F83F00F7E777
:1038100084F84000F4E7000000000140000401408B
:103820002DE9F04704460068B0F1804F01D1FEF762
:1038300045FA8848844277D1874CA08A401CA082F0
:10384000206E0025012830D0E06901286CD1217854
:10385000DFF8089201264FF4805840F2C93744F649
:10386000A930012938D0617801295DD1E178491E5C
:10387000E170618A491C6182A18A814202D8A16DEE
:1038800001297CD0A18A814202D9A16D012977D07A
:10389000A18A814202D8A16D002972D0A18A8142F9
:1038A00002D9A06D00286DD0B1E0A08AB0F56A5FA2
:1038B0007FD100216748FFF775FF6648FFF76EFC70
:1038C0002566A565A582E06AFCF744FF81B2E06A3F
:1038D000BDE8F047FDF702BC618A491C6182A18AFC
:1038E000814201D8A16D89B1A18A814201D9A16D1E
:1038F000D9B1A18A814202D8A16D01291FD0A18A24
:1039000081422ED9A06D012823D02AE0012000F0A9
:10391000EBFB2A4641464846A565FEF7C3F9608998
:10392000A18A084460811CE043E032464146484693
:10393000A665FEF7B7F9E089401CE0810FE00020A2
:1039400000F0D2FB324641464846A665FEF7AAF98A
:1039500007E02A4641464846A565FEF7A3F9A58239
:103960006582608AB84218D1A06DB0B9E089401C68
:10397000E081E38919213AA23C485B1C03E020E086
:103980002DE032E03BE0FCF727FD3848FCF7E2FE93
:1039900081B23648FDF7A2FB6582E089E16C88427E
:1039A00002DC2078012806D066702570A665A58205
:1039B0006582BDE8F08765702670E078401CE07095
:1039C000F7E7012000F090FB324641464846A665E5
:1039D000FEF768F96089A18A0844608117E0A5654F
:1039E000E089401EE0812A460BE0002000F07CFBCD
:1039F0002A4641464846A565FEF754F907E0324697
:103A0000A66541464846FEF74DF9A5826582608A63
:103A1000B84213D1A06D012810D1E089401EE08189
:103A2000E3890FA219211148FCF7D6FC0F48FCF7D7
:103A300091FE81B20D48FDF751FB6582E0890028B7
:103A4000B7D160780128B4D165702570BDE8F04722
:103A500000F010B8D002002000000020000002405A
:103A60002A4449533A25642300000000CC01002079
:103A70007047FEE7084810B50021C16101220266C7
:103A8000027041701146104600F036FBBDE8104050
:103A90000248FFF783BB000000000020D002002096
:103AA000F0B500230A24302537261F4611E000BF59
:103AB000B4EB107F02D905EB107C01E006EB107C23
:103AC00001F813C001EB430C00015B1C8CF8017082
:103AD000DBB29342ECD3F0BD7FB5002415480094CF
:103AE000019402941249039401604FF48031C0E9BB
:103AF000011401250461057680F820400E49C0E9D3
:103B00000A14C561C46080F830504561FDF791FD2D
:103B100008B172B6FEE70620CDE9000569460294B9
:103B20000448FDF73BFC002801D072B6FEE77FBDDC
:103B300000210140E80100200100000F7FB50024B2
:103B400015480094019402941249039401604FF4C3
:103B50008031C0E9011401250461057680F8204018
:103B60000E49C0E90A14C561C46080F8304045615F
:103B7000FDF75FFD08B172B6FEE70320CDE9000551
:103B8000694602940448FDF709FC002801D072B68A
:103B9000FEE77FBD00220140300200200100000F3F
:103BA0002DE9F04F87B014216846FCF759FE5448C0
:103BB0000024016841F004010160016801F0040182
:103BC0000591016841F020010160016801F02001C8
:103BD0000591016841F080010160016801F08001F8
:103BE0000591016841F001010160016801F00101E6
:103BF0000591016841F010010160016801F01001B8
:103C00000591016841F002010160016801F00201C3
:103C10000591016841F0400101600068DFF8E4901F
:103C200000F040000590002280214846FEF73AF857
:103C3000DFF8D4A04FF4AE46002231465046FEF7DE
:103C400031F8DFF8C8B046F6A027002239465846BA
:103C5000FEF728F84FF41448002241462C48FEF79E
:103C600021F84FF4804001258DE83100694629484C
:103C7000FDF7F6FECDE90054694648460295FDF78A
:103C8000EFFE142000904FF40410CDE901056946C1
:103C90004846FDF7E5FE80200090CDE901546946D5
:103CA00048460394FDF7DCFE0096CDE901546946D1
:103CB00050460394FDF7D4FE0097CDE901546946C0
:103CC00058460394FDF7CCFECDF80080CDE90154B1
:103CD00069460F480394FDF7C3FE002211460820F1
:103CE000FEF780F80820FEF76FF8002211460A2040
:103CF000FEF778F80A20FEF767F807B0BDE8F08F06
:103D00003038024000140240001002400018024007
:103D100000000240000802400F4810B50D49016044
:103D20004FF48271416000218160C1604FF40072E4
:103D30000161C0E905122022C0E9072141628162C8
:103D40000A21C162FFF74CF8002801D072B6FEE7E5
:103D500010BD0000003C00407802002010B596B075
:103D600000240F9410941194129413941C2108A809
:103D70001494FCF775FD20216846FCF771FD294875
:103D8000274901604721C0E901144FF6FF71C0E9DE
:103D900003148021C0E90541FFF72AF908B172B682
:103DA000FEE74FF480500F900FA91E48FFF70EFA60
:103DB00008B172B6FEE71B48FFF761FC08B172B6A6
:103DC000FEE7139413A917481494FFF7C9F808B134
:103DD00072B6FEE76020CDE908040A940B940C94B7
:103DE0000D94002208A90F480E94FFF7E2FB08B1DA
:103DF00072B6FEE700944FF40050CDE904400294FF
:103E000001940394694607480794FFF77FF808B1C7
:103E100072B6FEE70348FFF7A1FB16B010BD000025
:103E200000000140D002002010B58AB000242348D1
:103E300004940594069407940894099400940194BA
:103E400002941D49039401604721C0E901144FF613
:103E5000FF71C0E9031480218161FFF7C9F808B13F
:103E600072B6FEE74FF48050049004A91348FFF7A0
:103E7000ADF908B172B6FEE71048FFF7A8FA08B12D
:103E800072B6FEE7089408A90C480994FFF768F891
:103E900008B172B6FEE70120CDE90040029400228D
:103EA000694606480394FFF700FA002801D072B66D
:103EB000FEE70AB010BD0000000400401803002017
:103EC00010B501220F49104800F0B6FF08B1FDF708
:103ED00062FA0E490C4801F0CCF908B1FDF75BFA23
:103EE0000B49094800F04CFD08B1FDF754FA0648AB
:103EF00001F042FA002803D0BDE81040FDF74BBAAC
:103F000010BD0000640000200804002030010020E3
:103F1000B4000020FEE7FEE70148FEF7E1B800002C
:103F2000041B00202DE9F04103680D4604461E6C79
:103F300003EB4511D1F8080B94F806E04FF4004765
:103F40004FF0200C04F29C42BEF1010F09D0DFF8C3
:103F500098E0764539D1020432D500BFC1F8087B1C
:103F60003FE0224B5FEA007E04D59E4239D900042F
:103F7000F4D436E05FEA806E02D5C1F808CB30E0B9
:103F800010F0280F2DD19E4201D90004E6D405EB94
:103F9000C50004EB8000D1F8101BD0F87432C1F3D7
:103FA0001201591AC0F8681200F51570ADB903690D
:103FB0001BB1C2681144C1600FE0012120680AE012
:103FC00080060AD5C1F808CB07E035B9D4F86402F9
:103FD00018B90021184601F049FDE9B22046FDF765
:103FE00067FF0020BDE8F0810A31544F0A30544F7A
:103FF0002DE9F84F0E4601EBC60100EB8104814626
:104000000568D4E909101434884202D90120BDE8BA
:10401000F88F081AA168814200D20846C01C8708A0
:1040200005EB46181BE000BFA0EB010AA068504555
:1040300000D282460AF10300870899F80600009032
:104040001FFA8AF3F2B22846E16802F04DF8E168FF
:1040500001EB0A00E060616901EB0A006061D8F8D9
:10406000180980B2B84205D3D4E90401814201D2D3
:104070000028D9D1D4E90401884208D806F00F01FC
:1040800001208840D5F834188143C5F83418002041
:10409000BDE77047C2B220210148FDF703BE000012
:1040A000001802400C490E4A48430C490A4BC865A7
:1040B00092FBF0F08A6C5A430A63401EB0F5803FD1
:1040C00001D34FF6FF7007490A68D062C8600968DB
:1040D000400848637047000080190200000000207B
:1040E00000A24A04D0020020C2B24FF4006101488D
:1040F000FDF7D8BD0018024070B50D4C0D46C2B298
:104100004FF480512046FDF7CDFD0122910220465B
:10411000FDF7C8FD07490020096848622846FFF7F7
:10412000C1FFBDE8704000210248FFF7D7BA000088
:1041300000000240D002002010B500224FF4806140
:104140000448FDF7AFFDBDE8104000210248FFF72D
:1041500029BB000000000240D00200207047017817
:10416000407841EA002070477047000030B593B0B6
:1041700030216846FCF774FB14210CA8FCF770FB97
:104180001D480025016841F080510160006800F081
:10419000805011901948016821F4404141F4804158
:1041A00001600068022400F440401190012000905A
:1041B000000401908001CDE90640042008904820C9
:1041C000CDE9090403200B906846FEF753FC08B1C3
:1041D00072B6FEE70CA90F2081E831004FF4805041
:1041E000CDE90F0502210CA8FEF744FB002801D001
:1041F00072B6FEE713B030BD403802400070004098
:104200000248016841F470010160704788ED00E0E8
:104210000148FFF70AB90000D00200200148FFF76B
:1042200004B90000D00200200148FFF7FEB80000EA
:10423000D00200200148FFF7F8B80000D0020020AB
:104240000148FFF7F2B80000C00300200148FFF763
:10425000ECB8000018030020F0B50268294C2A4D84
:104260002A4E2B4F2B4B4FF0804CA04209D060457B
:1042700007D0A84205D0B04203D0B84201D098423E
:1042800004D122F0700E4A6842EA0E02A0421BD00E
:10429000604519D0A84217D0B04215D0B84213D00B
:1042A000984211D01C4DA8420ED01C4DA8420BD0F4
:1042B0001B4DA84208D01B4DA84205D01A4DA8425C
:1042C00002D01A4DA84203D122F44075CA682A438D
:1042D0004D6922F080022A4302608A68C2620A683D
:1042E0008262A04201D0984201D109690163012193
:1042F00041610169C90703D0016921F00101016130
:10430000F0BD000000000140000400400008004033
:10431000000C004000040140004001400044014006
:104320000048014000180040001C004000200040F0
:1043300010B501F01F030121046A99408C43046207
:10434000016A9A401143016210BD10B5846842EAC7
:10435000032224F47F440A432243826010BD826812
:1043600022F070020A4342F00701816070470000AA
:10437000F0B5036A026A22F00102026242688469AF
:10438000124E24F073050C682C4323F002058B6851
:104390002B430D4DA84201D0B04205D123F00807B0
:1043A000CB683B4323F00403A84201D0B04205D1BF
:1043B0004D6922F4407215438A692A434260846140
:1043C000496841630362F0BD000001400004014000
:1043D000F0B5026A036A23F010030362436884693C
:1043E0000D6824F4E64444EA05248D6822F0200296
:1043F00042EA05120F4D104EA84201D0B04206D13C
:10440000CF6822F0800242EA071222F04002A8425E
:1044100001D0B04207D14D6923F4406343EA8503DC
:104420008D6943EA85034360846149688163026260
:10443000F0BD00000000014000040140F0B5026A38
:10444000036A23F4807303624368C46922F4007230
:1044500024F073050C68124E2C438D6842EA052245
:104460000E4DA84201D0B04206D1CF6822F40062BE
:1044700042EA072222F48062A84201D0B04207D16A
:104480004D6923F4405343EA05138D6943EA05134C
:104490004360C4614968C1630262F0BD000001402D
:1044A0000004014030B5046A026A22F480520262BC
:1044B0004268C3690D6823F4E64343EA05238D6827
:1044C00024F4005444EA0534084DA84202D0084DB3
:1044D000A84204D14D6922F4804242EA851242602A
:1044E000C36149680164046230BD000000000140FE
:1044F0000004014010B5036A046A24F00104046258
:10450000846924F0F00444EA021423F00A020A4306
:104510008461026210BD000070B5056A046A24F06F
:10452000010404628469154EB04214D0B0F1804F8A
:1045300011D0134EB0420ED0124EB0420BD0124EDC
:10454000B04208D0114EB04205D0114EB04202D058
:10455000104EB04203D124F00304144301E044F0B0
:1045600001041A0724F0F00444EA126225F00A0359
:1045700001F00A0119438261016270BD000001402F
:104580000004004000080040000C0040000401400E
:10459000004001400018004010B5036A046A24F08E
:1045A00010040462846923F0A00324F4704444EAF4
:1045B000023243EA01118261016210BD30B5046A22
:1045C000056A25F010050562856925F4407545EA00
:1045D000022222F470454FF6FF7202EA033224F001
:1045E000A0032A43A02404EA011119438261016255
:1045F00030BD2DE9F0410C46D0F8D412D0F8C822D5
:1046000000EB8101D1F8C01229B304F00F0606EBCC
:10461000860300EB83050027AB694BB106EBC606AA
:1046200002EB8602D269B3FBF2F602FB1632A2B1AC
:10463000C1F81472D0F8D42200EB8200D0F8C40282
:1046400003692BB1D1F80802224601F5047198479D
:104650000020BDE8F0810320FBE700231A46214635
:10466000AF6100F0E7FDF3E770B50546D0F8D4027E
:1046700005EB8000D0F8C04294B1284600F0B4FCAD
:10468000C4F80C02D5F8D412D4F8040205EB810169
:10469000D1F8C412CA6804F503719047002070BDB8
:1046A000032070BD70B5224D0446297800F0E0FB70
:1046B0002878002600F00F0000EB800004EB80005B
:1046C00086846978204600F0D3FB687800F00F00FC
:1046D00000EB800004EB8000A0F86461A97820461C
:1046E00000F0C6FBA87800F00F0000EB800004EBA0
:1046F00080008684C684D4F8D40204EB8000D0F80D
:10470000C01299B1D0F8C40240688047D4F8D402EE
:1047100004EB8000D0F8C00200F0AFFFD4F8D40260
:1047200004EB8000C0F8C062C4F8BC62002070BD19
:10473000DC00002010B5D0F8D41200EB8100D0F8D6
:10474000C04284B1D0F8C41259B194F80002FF28D5
:1047500007D08B6894F8012221469847FF2084F8FF
:104760000002002010BD032010BD00000A210180BE
:1047700000487047E000002070B5064682210C48D2
:1047800000F086FA05460121094800F081FA044646
:104790008121074800F07CFA0DB11021A971402158
:1047A00004B1A18000B1818043203080004870BDF9
:1047B000EC00002070B5064682210D4800F068FA32
:1047C000054601210A4800F063FA044681210848A1
:1047D00000F05EFA0DB11021A9714FF4007104B11F
:1047E000A18000B1818043203080014870BD00006D
:1047F000EC00002070B5064682210C4800F048FA13
:1048000005460121094800F043FA04468121074882
:1048100000F03EFA0DB11021A971402104B1A18030
:1048200000B1818043203080004870BDEC00002042
:104830002DE9F04704464FF40775284600F01EFFA7
:1048400006004FF0000863D02946FCF709F8D4F8B9
:10485000D4023C4D04EB80004FF01009C0F8C06258
:10486000C4F8BC62207C4FF4007A0127F0B34023E7
:1048700002222978204600F028FC2878402300F006
:104880000F0000EB800004EB80008784022269782F
:10489000204600F01AFC6878082300F00F0000EBB7
:1048A000800004EB80000322A0F86471A978204600
:1048B00001F00F0101EB810104EB8101A1F82690C9
:1048C000A97800F002FCA87800F00F0000EB80004F
:1048D00004EB80008784C6F80482D4F8D4024746EB
:1048E00004EB8000D0F8C402006800E018E006F590
:1048F000017680473761776132687AB1207CF8B100
:1049000040236978204600F0ECFB0020BDE8F087EA
:10491000D4F8D41204EB8101C1F8C0820220F5E77B
:10492000534602222978204600F0CFFB28785346D0
:1049300000F00F0000EB800004EB80008784A5E707
:104940005346DEE7DC00002010B5D0F8D41200EBAF
:104950008101D1F8C01259B1027C084C002AD1F86B
:10496000042207D04023617800F0BBFB002010BD7B
:10497000032010BD4FF40073F5E70000DC000020B9
:1049800039B1D0F8D42200EB8200C0F8C412002064
:10499000704703207047D0F8D42200EB8200D0F893
:1049A000C00218B1C0F804120020704703207047FD
:1049B000D0F8D43200EB8300D0F8C00228B1C0F8A0
:1049C0001022C0F8081200207047032070472DE91C
:1049D000FC410646D0F8D4020C4606EB80000021CC
:1049E000D0F8C0728DF80010ADF804100D4637B144
:1049F000217811F060022FD0202A4BD102E0032051
:104A0000BDE8FC81E288F2B109060DD5D0F8C402F8
:104A100063783946D0F808C01846E047E288072A8C
:104A200000D9072239462DE0607887F80002E08837
:104A3000402800D34020C2B287F8012239463046D0
:104A400000F081F82BE0D0F8C40263780022866879
:104A500021461846B04722E0607830B101281ED0C8
:104A60000A2809D00B2815D110E096F89C020328DB
:104A700010D1022201A905E096F89C02032809D171
:104A800001226946304600F078F808E096F89C026A
:104A9000032804D02146304600F04AF80325284672
:104AA000AEE7000010B5D0F8D41200EB8101D1F8C8
:104AB000C02201211AB1D2F8143213B116E003203A
:104AC00010BD0121C2F814120949D2F81032097838
:104AD00001F00F0404EB840400EB8404A361D2F81A
:104AE0001032D2F8082200F0A5FB0021084610BDC4
:104AF000DC00002010B5D0F8B8220024526890479E
:104B000000B10324204610BD0020704700207047EC
:104B1000134610B50A46002100F0E3FA002010BD4C
:104B2000134610B50A46002100F084FB002010BD9A
:104B300010B50446802100F05EFB2046BDE8104021
:104B4000002100F058BB10B50323C0F89432C0F820
:104B500058211346C0F85C210A46002100F0C1FA32
:104B6000002010BD10B50521C0F8941200231A468C
:104B7000194600F0B6FA002010BD10B50223C0F8A7
:104B8000943282611346C2610A46002100F052FB52
:104B9000002010BD10B50421C0F8941200231A465D
:104BA000194600F047FB002010BDF8B50446002070
:104BB000ADF8000048880D46010A08295FD2DFE8F9
:104BC00001F05E0409175E5E3C45D4F8B412207C07
:104BD0000A6819E0207C02260028D4F8B80205D023
:104BE000C16A684688470146467039E0816AF8E73D
:104BF000C0B2062843D2DFE800F0030A1014181CE4
:104C0000D4F8B402426805E0694690471CE0D4F845
:104C1000B402826892B3207CF6E7D4F8B402C2688A
:104C2000F8E7D4F8B4020269F4E7D4F8B4024269B0
:104C3000F0E7D4F8B4028269ECE7207CF0B9D4F84C
:104C4000B802416B68468847014609E0207CA8B954
:104C5000D4F8B802016B68468847014607204870BF
:104C6000EA888AB1BDF8000040B1824200D902460C
:104C7000ADF800202046FFF780FFF8BDFFE729468A
:104C80002046FFF755FFF8E72046FFF783FFF4E7DC
:104C900078B50E4642880178002504468A4212D92A
:104CA000ADF800100AE0694600F019F841780529CE
:104CB00004D181780546B14205D000256188BDF850
:104CC00000209142EFD8284678BD0146002002E03E
:104CD000401CC0B2491C0A78002AF9D170470A88E2
:104CE00003781A440A8001780844704770B5164664
:104CF0000D46002820D00446FFF7E7FF022101EB14
:104D000040014FF40070814204D82046FFF7DDFFD8
:104D10004000801C308030782870032068700220AA
:104D2000002206E02954401CC0B22A54401CC0B2E4
:104D3000641C21780029F5D170BD01004FF00000FE
:104D400004D0012901D0022901D00320704701209D
:104D50007047000010B50A46024903A0FFF7C6FFDE
:104D6000004810BDE406002043444320436F6E66B4
:104D70006967000012200880004870478400002006
:104D800010B50A46024903A0FFF7B0FF004810BD66
:104D9000E406002043444320496E746572666163F3
:104DA0006500000004200880004870478000002053
:104DB00010B50A46024903A0FFF798FF004810BD4E
:104DC000E406002053544D6963726F656C6563742B
:104DD000726F6E696373000010B50A46024903A042
:104DE000FFF784FF004810BDE406002053544D3304
:104DF00032205669727475616C20436F6D0000003B
:104E000010B51A2008800A480168001D0468001DBA
:104E10000068081809D008220649FEF741FE054936
:104E2000042210312046FEF73BFE0248801E10BDD2
:104E3000107AFF1F9A00002078B10023C0F8B83222
:104E4000C0F8C432C0F8D03209B1C0F8B4120121A0
:104E500080F89C12027000F0CBB80320704710B5A8
:104E6000D0F8C802FDF766F8BDE81040FFF765BF4F
:104E700010B5D0F8C802FDF738F8BDE81040FFF7CC
:104E80005CBF2DE9F04117460446002521B194F896
:104E90009C02032842D04CE0D4F8941204F1140090
:104EA000022935D1D0E902639E4206D9F21A826006
:104EB00039462046FFF734FE0FE0B34214D1406874
:104EC000984211D3D4F8981288420DD2002211468C
:104ED0002046FFF725FEC4F8985200231A461946CB
:104EE000204600F0FEF813E094F89C02032808D155
:104EF000D4F8B802C16821B1C4F8D452C1682046C0
:104F000088478021204600F076F92046FFF72AFEE8
:104F100094F8A00268B184F8A0520AE0D4F8B8026C
:104F2000426932B1C4F8D452426920469047002801
:104F300000D10020BDE8F08170B513460446002280
:104F400021B194F89C02032830D03AE0D4F89412AE
:104F500004F5AA70032934D1D0E902518D420AD94F
:104F60006A1A82600846824200D3024619462046E9
:104F7000FFF7CEFD25E094F8AA0210F01F0003D041
:104F8000012802D0022800D0002294F89C020328B5
:104F900008D1D4F8B802016921B1C4F8D42201695A
:104FA000204688472046FFF7F5FD0AE0D4F8B8020E
:104FB000836933B1C4F8D42282692046904700281F
:104FC00000D1002070BD0020704710B500240121E1
:104FD00080F89C12D0F8B82222B15268017990472B
:104FE00000B10324204610BDD0F8C802FCF7CFBFA3
:104FF00010B5017801292AD116490122C1F8E0042F
:10500000C0F8C81214480860062008710220C87150
:105010008A71487200208872C87208738873C873D6
:1050200008740846FDF712FB08B1FCF7B4F94FF419
:1050300000710848FCF709FF802200210548FCF7B1
:1050400008FF4FF4BA7201210248FCF702FF00206A
:1050500010BD0000041B0020000004400A0601F0FF
:105060007F01D0F8C80201EBC10100EB810001D53E
:10507000807D704790F85602704710B5D0F8D42262
:1050800000EB8202D2F8B82222B190F89C32032BB6
:1050900002D004E0032010BD126A02B19047002044
:1050A00010BD10B5D0F8D42200EB8202D2F8B8229D
:1050B00022B190F89C32032B02D004E0032010BDF3
:1050C000526A02B19047002010BD10B51C4613462D
:1050D000D0F8C8022246FCF763FFBDE81040FFF796
:1050E0002CBE10B5D0F8C802FCF78BFFBDE810400D
:1050F000FFF723BE2DE9F04100260125044680F884
:105100009C52C4F894626660C4F8A46280F8A062FD
:10511000D0F8B80230B1426822B100212046904751
:1051200000B103260022402311462046FFF7CDFFA1
:105130004027A4F864513B46002280212046C4F851
:105140006071FFF7C2FFA58430462762BDE8F08199
:1051500090F89C12042903D190F89D1280F89C12BB
:105160000020704710B590F89C12032905D1D0F8A3
:10517000B81211B1C96901B18847002010BD01748E
:105180000020704710B5D0F8C802FDF71FFBBDE83E
:105190001040FFF7D2BD70B5044600F2AA200546C4
:1051A00000F051F80120C4F89402B4F8B002C4F839
:1051B000980294F8AA0210F01F010AD001290ED01B
:1051C000022912D000F080012046BDE8704000F0B6
:1051D00012B829462046BDE8704000F0CFB82946F5
:1051E0002046BDE8704000F00FBA29462046BDE8D1
:1051F000704000F059B910B5D0F8C802FCF71DFF97
:10520000BDE81040FFF799BD10B5D0F8C802FDF712
:10521000F7FABDE81040FFF790BD90F89C12042902
:1052200003D090F89C1280F89D12042180F89C1203
:105230000020704710B5D0F8C802FCF737FFBDE872
:105240001040FFF77ABD70B5054611F8010B2870C4
:10525000087868704C1C2046FEF781FF6880A41C0B
:105260002046FEF77CFFA880A01CFEF778FFE880B0
:1052700070BD38B504460020ADF80000A1B1C4F8F7
:10528000B812D4F8D40204EB8000D0F8B802C16A96
:1052900019B168468847C4F8D002D4F8D802401C37
:1052A000C4F8D802002038BD032038BD02460020D3
:1052B000D2F8B832002B02D01B681046184770474E
:1052C0002DE9F04188462B4E89780025044631703F
:1052D000012906D941462046FFF72AFC0320BDE8F4
:1052E000F08194F89C02022702280CD003281DD0DC
:1052F00041462046FFF71CFC31782046FFF7FAFBB9
:1053000003252846EBE789B320466160FFF7CEFF0F
:10531000050004D041462046FFF70AFC1DE0204668
:10532000FFF738FC032084F89C02EAE7C1B160680B
:1053300088421BD0C1B22046FFF7DCFB3178204603
:105340006160FFF7B3FF050010D041462046FFF72C
:10535000EFFB21792046FFF7CDFB84F89C72D0E764
:1053600084F89C7220466160FFF7C4FB2046FFF77B
:1053700011FCC6E7D8000020FFF746BF2DE9F04139
:105380000A78002512F060020CD0202A01D0402AB1
:105390007DD1D0F8D42200EB8202D2F8B8229268F4
:1053A000904731E04B78002201260A2B6FD2DFE8CC
:1053B00003F041666E586E08056E2D29FFF7F5FB68
:1053C00067E004468888D8B9C888C8B94888802862
:1053D00016D200F07F0794F89C02032810D084F8BE
:1053E0009E7239462046FFF7CDFE2046FFF7D2FBDE
:1053F0001FB1022084F89C024BE084F89C6248E0D4
:10540000204644E0FFF75CFF054642E0CB88012BD5
:105410003DD190F89C32012B04D0022B02D0032BFB
:1054200035D104E08260012200F1080116E001227A
:10543000011D13E090F89C22012A03D0022A01D01A
:10544000032A24D1CA88022A21D1C660D0F8A41226
:1054500009B10321C160022200F10C01FFF78DFBAD
:1054600017E04A88012A02D0022A03D00FE0C0F8D0
:10547000A46216E08988090A80F8A01211E090F869
:105480009C32012B08D0022B06D0032B04D0FFF74F
:105490004FFB2846BDE8F08149880129F9D1C0F8C1
:1054A000A422FFF777FBF4E72DE9F04105460878E1
:1054B0000C790E464FF0000810F060000BD0202849
:1054C00001D040286AD121462846FFF71DFBFF285E
:1054D00000D0D8B395E07078C8B3012824D0032851
:1054E0005CD195F89C02022802D0032856D10CE02A
:1054F000002C53D0802C51D021462846FFF77BFE4C
:1055000080212846FFF777FE7BE0708840B93CB1E8
:10551000802C05D0C88818B921462846FFF76BFEB5
:105520002846FFF737FB6CE095F89C020228DFD095
:10553000032863D1708880BB600603D021462846CB
:10554000FFF78DFC2846FFF725FBBCE700E00AE0EB
:10555000C5F8D402D5F8B8028268F2B131462846BF
:10556000904780464DE095F89C020027022802D023
:10557000032843D113E00CB1802C3FD1200604F066
:105580007F0000EB800005EB800101D5143101E0C4
:1055900001F5AA7102220F602CE032E02EE0200615
:1055A00004F00F0000EB800005EB800009D5808C33
:1055B00020B304F07F0000EB800005EB800614367A
:1055C0000AE0B0F86401C8B104F07F0000EB80008D
:1055D00005EB800606F5AA764CB1802C07D0214653
:1055E0002846FFF73BFD10B10120306000E0376036
:1055F000022231462846FFF7C0FA02E02846FFF7AC
:1056000097FA4046BDE8F08170B505460878002459
:105610000E4610F0600003D0202801D0402827D18A
:1056200095F89C02012803D0022801D003281FD13D
:10563000B088C1B201291AD8C1B22846FFF766FA6C
:10564000FF280CD058B9D5F8B8128A683AB1C5F815
:10565000D4028A68314628469047044600E0032475
:10566000F088204307D12846FFF794FA03E031463B
:105670002846FFF75DFA204670BD70470048704726
:10568000E418002070B50A78012302F00F054E7867
:10569000AB401B4CD0F81C58012E17D045EA0343F1
:1056A000C0F81C3800EB4210D0F8002B12040BD4C9
:1056B000D0F8002B0B890979C3F30A031A4344EA93
:1056C00081410A43C0F8002B002070BD9BB21D43EE
:1056D000C0F81C5800EB4210D0F800391B04F3D47A
:1056E000D0F800390D890979C5F30A0589042B43DF
:1056F00041EA82510B432343C0F80039E4E700003C
:1057000000800010D0F800196FF30A01C0F80019EA
:10571000D0F8041841F48071C0F8041800207047D4
:1057200070B50D460446C2F3072104981E460129B0
:105730001BD0E06840F04000E060204600F032F806
:10574000C6F307210029A16B26D021F48031A16383
:10575000C5F30741012907D1A16841F00601A16005
:10576000A16841F02001A16070BDA16B21F48031DE
:10577000A163E1680A4A1140E160E16821F4401147
:10578000E160C0B2012803D1E06840F48010E0601D
:10579000204600F007F8DBE741F48031D7E700004E
:1057A000BFFFBDFF08B500214FF070620091009B64
:1057B0005B1C009393420CD80369002BF7DA00912D
:1057C000016941F0010101610099491C0091914278
:1057D00001D9032008BD0169C907F5D1002008BD22
:1057E00030B54C780A78012300EB4212012C2CD002
:1057F000D2F8004B002C0BDAD2F8004B44F00064D6
:10580000C2F8004BD2F8004B44F08044C2F8004B81
:10581000D0F83C580C7804F00F0403FA04F425EA9D
:105820000444C0F83C48D0F81C48097801F00F0146
:105830008B4024EA0341C0F81C18D2F8000B194928
:105840000840C2F8000B002030BDD2F80049002CFF
:105850000BDAD2F8004944F00064C2F80049D2F8EB
:10586000004944F08044C2F80049D0F83C480D7823
:1058700005F00F0503FA05F5ADB2AC43C0F83C489E
:10588000D0F81C48097801F00F018B4099B28C4385
:10589000C0F81C48D2F8000903490840C2F80009C2
:1058A000D1E700000078F3EF007833ECD0F8001E69
:1058B00021F00301C0F8001ED0F8041821F0020105
:1058C000C0F8041800207047D0F8001E21F0030132
:1058D000C0F8001ED0F8041841F00201C0F8041806
:1058E000002070472DE9F04F00250E46044617466C
:1058F0002846294604EB8002C2F80411401C0F28F8
:10590000F8D3C3F307405FEA0009204616D0806B46
:1059100020F40012A263A06B40F40022A2630846A8
:1059200088462146C4F8000EC7F30720012817D087
:105930000846D1F8001841F0030118E0D0F8040837
:1059400040F00202C4F80428A06B40F40012A263E5
:10595000A06B20F40022A263A06B20F48022DDE77C
:10596000300E0846D1F8001801D041F00101C0F80E
:105970000018102100F08BFA00B10125204600F03C
:105980006AFA00B101254046C4F81088C4F81488AA
:10599000C4F81C8800214FF0006B4FF0904E4FF67A
:1059A0007F3AF2B215E000BF04EB4113D3F800C90F
:1059B000BCF1000F06DA11B1C3F800E904E0C4F845
:1059C00000B901E0C3F80009C3F81009C3F808A939
:1059D000491C8A42E8D8002115E000BF04EB4113BE
:1059E000D3F800CBBCF1000F06DA11B1C3F800EB1D
:1059F00004E0C4F800BB01E0C3F8000BC3F8100BCF
:105A0000C3F808AB491C8A42E8D8D4F8101821F42E
:105A10008072C4F81028A0616FF080406061C6F306
:105A2000074018B9A06940F01000A061A0690A49B8
:105A30000843A061C7F3074018B1A06940F008000F
:105A4000A061B9F1010F03D1A06904490843A06125
:105A50002846BDE8F08F000000383C80040000407C
:105A6000816821F0010181600020704710B5036C4E
:105A7000134CA34203D9D0F8003B002B1EDB0023BC
:105A8000C0F8103BD0F8103B43F40023C0F8103BA3
:105A9000D0F8103B43F01803C0F8103BD0F8103B8F
:105AA00043F0C043C0F8103B012907D1C0F8142BC4
:105AB000D0F8001B41F08021C0F8001B002010BD71
:105AC0000A30544F4A780B78012A00EB43100BD070
:105AD000D0F8002B22F40012C0F8002B097903291A
